:020000040800F2
:10000000C0060020290200086502000867020008F7
:10001000690200086B0200086D0200080000000081
:100020000000000000000000000000006F02000857
:100030007102000800000000730200087502000849
:1000400077020008770200087702000877020008AC
:10005000770200087702000877020008770200089C
:10006000770200087702000877020008770200088C
:10007000770200087702000877020008770200087C
:10008000770200087702000877020008770200086C
:10009000770200087702000877020008770200085C
:1000A000770200087702000877020008770200084C
:1000B000770200087702000877020008770200083C
:1000C000770200087702000877020008770200082C
:1000D000770200087702000877020008770200081C
:1000E000770200087702000877020008770200080C
:1000F00077020008770200087702000877020008FC
:1001000077020008770200087702000877020008EB
:1001100077020008770200087702000877020008DB
:1001200077020008770200087702000877020008CB
:1001300077020008770200087702000877020008BB
:1001400077020008770200087702000877020008AB
:10015000770200087702000877020008770200089B
:10016000770200087702000877020008770200088B
:1001700077020008770200087702000800000000FC
:10018000770200087702000800F002F800F03CF85F
:100190000AA090E8000C82448344AAF10107DA45E2
:1001A00001D100F031F8AFF2090EBAE80F0013F0F8
:1001B000010F18BFFB1A43F0010318477C08000029
:1001C0009C080000103A24BF78C878C1FAD85207BA
:1001D00024BF30C830C144BF04680C6070470000C1
:1001E0000023002400250026103A28BF78C1FBD840
:1001F000520728BF30C148BF0B6070471FB500F0E1
:1002000015FC1FBD10B510BD00F093F81146FFF7A7
:10021000F5FF00F021FB00F0B1F803B4FFF7F2FFA7
:1002200003BC00F0B9F8000016481749174B994273
:100230003CBF50F8042B41F8042BF8D314494FF07D
:1002400000028B4238BF43F8042BFAD3DFF8440096
:10025000016841F470010160BFF34F8FBFF36F8FEE
:100260000D480047FEE7FEE7FEE7FEE7FEE7FEE794
:10027000FEE7FEE7FEE7FEE708480949094A0A4BA0
:1002800070470000580A0008000000203C000020D1
:10029000C006002088ED00E089010008C0000020B1
:1002A000C0060020C0020020C00200204FF0013C28
:1002B00050F8042B51F8043B9A4221D1A2EB0C03D5
:1002C000934313EACC1317D150F8042B51F8043B95
:1002D0009A4215D1A2EB0C03934313EACC130BD132
:1002E00050F8042B51F8043B9A4209D1A2EB0C03BD
:1002F000934313EACC13DBD04FF00000704700BFEC
:10030000D01A01BAB1FA81F101F0180122FA01F014
:10031000CB40C1F12001DBB2C0B2C01A2CFA01F30C
:10032000D11A914311EAC311E6D170477047704763
:100330007047754600F02CF8AE46050069465346F6
:1003400020F00700854618B020B5FFF795FFBDE8FF
:1003500020404FF000064FF000074FF000084FF02C
:10036000000B21F00701AC46ACE8C009ACE8C009BD
:10037000ACE8C009ACE8C0098D46704710B504462A
:10038000AFF300802046BDE81040FFF746BF0000F5
:10039000004870475C00002001491820ABBEFEE712
:1003A00026000200704700000348406920F4807076
:1003B0000149486170470000001000480348406947
:1003C00040F4807001494861704700000010004807
:1003D0000348406980F4807001494861704700001B
:1003E000001000482348C06C40F012002149C86446
:1003F0006FF03000204908600846006840F01000A7
:1004000008601D480830006820F030001A490831A3
:1004100008600846006840F030000860081F006867
:1004200020F00400091F086013480C30006820F019
:10043000300011490C3108606FF440300F490860FA
:100440000846006840F4803008600846806820F460
:10045000403088600846806840F440308860084634
:10046000406820F4807048600846C06820F440303E
:10047000C8607047001002400004004800100048A7
:100480000348006820F0040001490860704700003C
:10049000140400480348006840F004000149086063
:1004A00070470000140400480348006880F004000E
:1004B0000149086070470000140400485E4909685B
:1004C00021F007015C4A11601146096841F0020100
:1004D00011605A49096841F48071584A116000BF9F
:1004E0005649096801F480610029F9D01020534968
:1004F000496821F0F851514A51601146496841EA72
:10050000006151601146096821F08071116000BFDF
:100510004A49096801F00071B1F1007FF8D04749FC
:10052000C96821F00301454AD1601146C96841F00C
:100530000201D1601146C96821F4FE4141F4A05185
:10054000D1601146C96821F0700141F01001D160FD
:100550001146C96821F0C061D1601146C96841F0F7
:100560008071D1601146096841F08071116000BF4F
:100570003249096801F000710029F9D02F498968D2
:1005800021F003012D4A91601146896841F0030171
:10059000916000BF2949896801F00C010C29F9D14B
:1005A0002649896821F0F001244A91601146896842
:1005B00021F4E06191601146896821F460519160F5
:1005C0001146096821F08061116000BF1B4909686C
:1005D00001F08061B1F1806FF8D01849096921F408
:1005E000FE41164A11611146096941F4C051116179
:1005F0001146096941F4003111611146096941F45C
:10060000803111611146096841F08061116000BFBD
:100610000A49096801F080610029F9D00749883149
:10062000096821F44001054AC2F888101146096E94
:1006300041F4001111667047002002400010024092
:100640001A48C06C40F008001849C864184800688F
:1006500020F47050164908600846006840F42050A5
:10066000086013482030006840F0EE6010492031E7
:1006700008600F480830006840F470500C49083199
:100680000860081D006820F47050091D08600846C5
:10069000006840F4A05008600548001D006820F084
:1006A00060000349091D0860704700000010024007
:1006B000000C004800B50D48806D40F400300B4937
:1006C00088650A488830006820F00C00C1F888006E
:1006D0000846D0F8880040F00400C1F88800FFF711
:1006E000AFFF034800F010F800BD0000001002400A
:1006F00000440040642242430723B2FBF3F100BFF1
:100700004A1E111EFCD17047016821F001010160F1
:10071000016821F010210160016821F400410160AD
:10072000416821F44051416042F28D01C16001688D
:1007300041F00C0101601E4988421BD1016841F063
:1007400020010160016821F040010160016821F091
:1007500010010160016821F080010160016821F44D
:1007600080710160016821F040010160016821F0A1
:10077000010101600F49884209D1016A41F040013D
:1007800001620D49096841F0C0010B4A116001681E
:1007900041F00101016000BFC16901F400110029AD
:1007A000FAD000BFC16901F480010029FAD0704776
:1007B000004C004000440040083801400146C86930
:1007C00000F0200010B1888CC0B270470020FCE718
:1007D000F0B504460E46174600250CE000BFE06960
:1007E00000F080000028FAD0705D20854FF49670EC
:1007F000FFF780FF6D1CBD42F0D300BFE06900F041
:1008000040000028FAD0E06920F04000E061F0BD2F
:1008100070B504460D46207868B10021681E215449
:10082000012206A10648FFF7D3FF10222146044803
:10083000FFF7CEFF6D1E207870BD00000A0000009B
:10084000004400400246002002E000231354401CF4
:100850008842FADB1078704710B5FFF72FFEFFF7DC
:10086000C1FDFFF727FF00F003F8002010BD0000D6
:10087000002500260027A846A946A9E05548FFF70D
:100880009DFF0446002C72D00D2C72D1012252A182
:100890005048FFF79DFF51A15148FFF707FD48B9A8
:1008A000FFF7F8FD03214E48FFF7CCFF00254FF07E
:1008B00000085BE04BA14A48FFF7F8FC40B9FFF79E
:1008C000DFFD04214648FFF7BDFF0025A8464DE0A7
:1008D00046A14348FFF7EAFC40B9FFF76FFD03214B
:1008E0003F48FFF7AFFF0025A9463FE040A13C4845
:1008F000FFF7DCFC40B9FFF757FD04213848FFF74C
:10090000A1FF0025A94631E03BA13548FFF7CEFC09
:1009100038B94FF0010807213148FFF793FF002550
:1009200024E037A12E48FFF7C1FC38B94FF0010988
:1009300007212B48FFF786FF002517E032A1284842
:10094000FFF7B4FC40B94FF00008C1460921244824
:10095000FFF778FF002509E010222EA11D48FFF7C0
:1009600037FF10211E48FFF76DFF0025002517E017
:10097000FFE77F2C06D129461948FFF749FF78B1D8
:100980006D1E0DE028466D1C15490C542648047058
:10099000012201460F48FFF71BFF00202249087083
:1009A0004FF47A70FFF7A6FEB8F1010F06D1761C5E
:1009B000B6F57A7F02D1FFF777FD0026B9F1010F76
:1009C00006D17F1CB7F57A7F02D1FFF701FD002722
:1009D00054E70000004400400A000000524F4E005F
:1009E0003C000020524F464600000000474F4E009A
:1009F000474F46460000000052464C415348000015
:100A000047464C4153480000464C4153484F4646E8
:100A100000000000496E76616C696420436F6D6D63
:100A2000616E640A00000000390000204FF0407041
:100A3000E1EE100A70470000580A0008000000208C
:100A40003C000000C4010008940A00083C0000209B
:100A500084060000E0010008436F6D6D616E6473F1
:100A60003A20524F4E2C20524F46462C20474F4E94
:100A70002C20474F46462C2052464C4153482C20B0
:100A800047464C4153482C20464C4153484F46461C
:040A90000000000062
:040000050800018965
:00000001FF
